S00B00006268632E73726563EC
S31500000000F8170020891C0000B51A0000851C0000A6
S31500000010851C0000851C0000851C0000851C000056
S31500000020000000000000000000000000851C000029
S31500000030851C000000000000851C0000851C0000D7
S31500000040090900007D08000095090000D509000097
S31500000050CD0B00000D0D0000211500005D160000FF
S31500000060491700000D180000000000000000000005
S31500000070000000000000000000000000000000007A
S31500000080000000000000000000000000000000006A
S31500000090000000000000000000000000000000005A
S315000000A0000000000000000000000000000000004A
S315000000B0000000000000000000000000000000003A
S315000000C0000000000000000000000000000000002A
S315000000D0000000000000000000000000000000001A
S315000000E0000000000000000000000000000000000A
S315000000F000000000000000000000000000000000FA
S3150000010000000000000000000000000000000000E9
S3150000011000000000000000000000000000000000D9
S3150000012000000000000000000000000000000000C9
S3150000013000000000000000000000000000000000B9
S3150000014000000000000000000000000000000000A9
S315000001500000000000000000000000000000000099
S315000001600000000000000000000000000000000089
S315000001700000000000000000000000000000000079
S315000001800000000000000000000000000000000069
S315000001900000000000000000000000000000000059
S315000001A00000000000000000000000000000000049
S315000001B00000000000000000000000000000000039
S315000001C0FFFFFFFFFFFFFFFFFFFFFFFFFFFFFFFF39
S315000001D0FFFFFFFFFFFFFFFFFFFFFFFFFFFFFFFF29
S315000001E0FFFFFFFFFFFFFFFFFFFFFFFFFFFFFFFF19
S315000001F0FFFFFFFFFFFFFFFFFFFFFFFFFFFFFFFF09
S3150000020010B5054C237833B9044B13B1044800E00C
S3150000021000BF0123237010BD9000002000000000E5
S31500000220CC35000008B5034B1BB10349034800E079
S3150000023000BF08BD0000000094000020CC3500007F
S31500000240014B02791A707047B300002000B58C4646
S31500000250864683B002220123074801A98DF804E0EF
S315000002608DF805C001F02AF8044A1378032BFCD157
S3150000027003B05DF804FB00BF00010020B3000020BE
S315000002800123844630B583B00D461A460D480DF15C
S3150000029007010D4C8DF807C001F010F82378032BE9
S315000002A0FCD14FF47A710A2001F0D0FB002306221C
S315000002B0294604482B6000F0E7FF2378022BFCD187
S315000002C003B030BD00010020B3000020014B0279CD
S315000002D01A707047B200002000212DE9F043B5B036
S315000002E0602203A8029101F04AFD002160221CA8A9
S315000002F01B9101F044FD00216B20184F184E194D3B
S31500000300DFF86490DFF86480FFF7A0FF02A90622F9
S315000003103B20FFF7B5FFBDF80810BDF80A20BDF871
S315000003200C3049BA52BA5BBA398032802B803A888F
S3150000033033882C88494624B21BB212B21BA80094FB
S3150000034001F03EFD1BA9404601F022FD4FF47A71F3
S315000003504FF4FA7001F07AFBD8E700BFAC0000203A
S31500000360AE000020B0000020A0320000AC32000039
S31500000370022800D0704708B5094B0A48596800F0B2
S3150000038093FE0949094800F0DBF80949094800F0DD
S315000003905BFBBDE808400849084801F085B800BF86
S315000003A0B0320000B80000201C33000040010020DD
S315000003B0BC320000C0000020EC320000000100202A
S315000003C00379012B06D0022B00D070470122034B84
S315000003D01A707047024A1370704700BFB5000020BC
S315000003E0B40000202DE9F04700268A469146154CB8
S315000003F0154F164D4E451CDA00230122514638464C
S31500000400D046237000F050F8B8B92378002BFCD002
S31500000410002301225146384616442B7000F04AF854
S315000004202B78002BFCD098F900300AF1010A0D2B2D
S31500000430E0D100BF3046BDE8F0874FF0FF363046CA
S31500000440BDE8F087B400002040010020B500002080
S315000004502DE9F843161E1ADD00250F46A8460D4C59
S31500000460DFF8349001224846791984F8008000F0BC
S3150000047021F840B92378002BFCD00135AE42F1D1EA
S315000004803046BDE8F8834FF0FF30BDE8F883002022
S31500000490F7E700BFB50000204001002008B5FFF7D0
S315000004A01BFF002008BD00BF03460020C3E905125C
S315000004B0704700BF10B4046AA37803F07B03A370EF
S315000004C0837803F00303D21A0B440261A278C36057
S315000004D0837842F0800203F00303022BA27005D05A
S315000004E00B780020E3705DF8044B70470B88002002
S315000004F043F47E43E3815DF8044B7047F0B5846AAC
S3150000050085B005460F4694466E46B4B194E80F0092
S3150000051086E80F00EB6920461B7884F804C0236048
S31500000520EB6AC4E902736B6A9847AC6A1CB196E839
S315000005300F0084E80F0005B0F0BD3446EAE700BFBF
S315000005402DE9F0470024034601250A78047002F5D8
S31500000550800202F58C52120202624A69C16142624D
S315000005609A78886965F301029C62D8629A704A7823
S3150000057022B902209A7860F301029A70012491F957
S315000005800B50B94A680905F01F07203004FA07F72F
S315000005908E7A42F82070BFF34F8FBFF36F8FB34848
S315000005A005F1C00750F827C036016FF3104C40F82C
S315000005B027C0AF4F02EB050CF6B28CF8006347F884
S315000005C0253091F905500E794FEA551C05F01F0E9E
S315000005D00CF1200C04FA0EFE42F82CE0BFF34F8F0C
S315000005E0BFF36F8F05F1C00C50F82CE036016FF3A6
S315000005F0104E40F82CE0F6B202EB050C8CF80063C6
S3150000060047F8253091F907508E794FEA551C05F0C9
S315000006101F0E0CF1200C04FA0EFE42F82CE0BFF37C
S315000006204F8FBFF36F8F05F1C00C50F82CE03601E9
S315000006306FF3104E40F82CE0F6B202EB050C8CF886
S31500000640006347F8253091F909600D7A4FEA561C88
S3150000065006F01F0E0CF1200C04FA0EFE42F82CE0F8
S31500000660BFF34F8FBFF36F8F06F1C00C50F82CE02D
S315000006702D01EDB232446FF3104E40F82CE082F8B3
S31500000680005347F82630EFF3108584F310884FF0B7
S315000006900044784A0E785068F44020EA040050601E
S315000006A0526885F31088002040F219241A6A06253C
S315000006B09070107150729072D0725083087824FA3C
S315000006C000F0C00744BF4020D07440F21920CC6926
S315000006D015770D788E78E840C70748BF4FF4784005
S315000006E04D78C97848BF9082C900032D41EA0611AA
S315000006F000F0B580002D14BFF220E220C9B21170BF
S315000007009071217B08290EBF0A21490001F00201E0
S3150000071051736178A078C901400100F02000C9B288
S315000007200143002010722678B01E012840F28E8008
S31500000730C9B2D171616888784D785070107865F3C8
S3150000074001001070C87809789074D07901F05C01C6
S3150000075000F0A3000143D17100204FF00108C3E966
S315000007600300C3E90500D3F81C90404999F905C078
S31500000770414F0CF1C00E4FEA5C1551F82EA0AD00AA
S315000007800CF01F0C05F1604508FA0CFC05F56145F7
S3150000079060F3104A41F82EA0C5F880C1C5F800C024
S315000007A099F90BC006F003060CF1C00E4FEA5C1572
S315000007B051F82EA0AD000CF01F0C05F1604508FAAB
S315000007C00CFC05F5614560F3104A41F82EA0C5F80A
S315000007D080C1C5F800C099F907E046F070060EF131
S315000007E0C00A4FEA5E1C0EF01F0E08FA0EF54FEA1D
S315000007F08C0C51F82AE00CF1604C0CF5614C60F35E
S31500000800104E41F82AE0CCF88051CCF8005099F906
S31500000810095005F1C00C51F82CE060F3104E41F878
S315000008202CE069098900B4F80AC001F1604105F0BD
S315000008301F0408FA04F401F56141C1F880410C6017
S315000008409670A3F808C05F60BDE8F087FF20022E0F
S3150000085008BF41F01001C9B25070D1717CE7F22097
S3150000086041F040014AE700BF00E100E000600040BF
S31500000870B4010020004008405549435330B4EFF31B
S315000008800383103B5BB21E4A03F1C00152F82100FC
S315000008901C4C6FF3104042F8210054F82300C36942
S315000008A01B691BB103691BB130BC704703697BB977
S315000008B0D0E908240021937803F07F0343F0040372
S315000008C09370C160002CEFD030BC8022FFF716BEBB
S315000008D0827802F003010229C1680BD0046A91F8FC
S315000008E000C084F803C002F003029B1A0A44C0E960
S315000008F00323D8E70C88056A44F47E44EC81F2E7CA
S3150000090000600040B401002010B582B0EFF303830D
S31500000910103B1E4A5BB203F1C00152F821001C4C89
S315000009206FF3104042F8210054F82340A27802F0F9
S315000009300303022B236A0CBF198A5979A3690CBFDA
S31500000940C1F30801C9B2019143B9636AB3B1042284
S31500000950204602B0BDE81040FFF7D0BD02F003020A
S3150000096001A9606901F0FEF9D4E90521A37803F035
S3150000097003031A44C91AC4E9052109B102B010BD1E
S31500000980636A002BFAD00122E2E700BF0060004054
S31500000990B401002010B5EFF303840C4B103C64B295
S315000009A053F82400D0E90821937803F07B03937071
S315000009B019B102220021FFF7A1FD054BC03453F8FF
S315000009C024206FF3104243F8242010BDB401002008
S315000009D00060004010B5EFF30384194B103C64B27D
S315000009E053F82400837803F00303022B036A0CBF39
S315000009F0198A597993F804C00CBFC1F30801C9B22A
S31500000A001CF0100F0CF0380206D093F81CC01CF036
S31500000A10010F08BF42F0400293F804C00CF0C70C67
S31500000A2083F804C0436A0BB1FFF768FD054BC03479
S31500000A3053F824206FF3104243F8242010BD00BF62
S31500000A40B40100200060004000232DE9F0430A783D
S31500000A508C6802F58002C0E9001402F58C5212027D
S31500000A6002610A7B0272D1E907424463C0E90E3291
S31500000A70EFF310864FF0010E8EF310884FF000440E
S31500000A803F4A0D7824FA05F5546824EA05045460B3
S31500000A90526886F31088F024FA2723250268566ADE
S31500000AA002699370D472B47804F003041470347835
S31500000AB09771A400777844F02004E4B25770D4719B
S31500000AC07479304F1472F478947434792E4EE400AD
S31500000AD044EA0E04E4B25472957253734C7B91F956
S31500000AE00F202401294D06EB020CE4B28CF80043DA
S31500000AF002F1C00847F822004FEA521C55F8289028
S31500000B004FEA8C0C02F01F020CF1604C0EFA02F256
S31500000B100CF5614C63F3104945F82890CCF8802118
S31500000B20CCF8002091F910100E4486F800434A09CB
S31500000B3047F8210001F1C00455F82460920001F045
S31500000B401F0102F160420EFA01F102F5614263F300
S31500000B50104645F82460C2F8801111600C4A80F8EE
S31500000B602D30C0E9083380F82E30836180F82F30AD
S31500000B70C36180F83030C2601846BDE8F08300BF1C
S31500000B8000400840B401002000E100E000600040A1
S31500000B904332495330B5836B83B004460A466D46EB
S31500000BA08BB193E8030085E80300E16B1A711846E0
S31500000BB0626B19609047A36B1BB195E8030083E84D
S31500000BC0030003B030BD2B46EFE700BF10B4EFF3D0
S31500000BD00383103B4B4A5BB2C03352F823106FF3CA
S31500000BE0104142F82310EFF30383474A103B5BB2F0
S31500000BF052F823301A69117BC1F3000CC90724D4BB
S31500000C0093F82C1093F82A00884212D093F82D00FE
S31500000C1008B102294CD093F828000131D07093F81E
S31500000C202B2083F82C10013A83F82B205DF8044B17
S31500000C307047196A69BB93F82E1000293BD05220E1
S31500000C400121D07283F83010F0E793F82D10B1B17E
S31500000C5093F8311099B9507999695A6A885493F87A
S31500000C602E00D3E9081201390132C3E9081228B36C
S31500000C70522001221969C87283F83020D6E7002471
S31500000C80012054211C6283F82F005DF8044BD172B9
S31500000C90704793F82D00A8B193F83100D8B1012917
S31500000CA083F831C028D0FF2482F80AC0D470BDE78B
S31500000CB05223D372BAE75423D372B7E754221B697F
S31500000CC0DA72B3E7586A9C690139245C0130C3E9DA
S31500000CD00810D470AAE7507999695A6A8854D3E9FA
S31500000CE00821013A0131012AC3E9082103D0FF2472
S31500000CF01A69D4709AE71A692023FF249372D47074
S31500000D0094E700BF00600040B401002010B5EFF387
S31500000D1003832F4A103B5BB252F823000269D37A51
S31500000D206FF3C303D37290F82F307BBB90F82A1071
S31500000D3003F0FF0C90F82C3099421AD1036A5BB984
S31500000D4090F82D1090F83040002914BF022103219D
S31500000D50ACB3D372FFF71EFFEFF30383103B1D4ABC
S31500000D605BB2C03352F823106FF3104142F82310E0
S31500000D7010BD8BB190F82D4004F0FF0134B3022B67
S31500000D8010D190F829C04CF0010C0BE0F0230121A2
S31500000D90D372FFF7FFFEDFE701290CBF90F828C0EA
S31500000DA090F829C00021D17282F803C090F82B2058
S31500000DB0013380F82C30531E80F82B30CCE7F0231B
S31500000DC0D372937803F0CF039370C3E78C46E9E7B9
S31500000DD0B4010020006000400022034610461A605D
S31500000DE0704700BF0B0A10B41B01064C53FA81F181
S31500000DF054F821300020C3F340035DF8044B137010
S31500000E00704700BF00080840090A490101F1804106
S31500000E1001F500214B68002013807047090A49013B
S31500000E2023EA020C01F180411A4001F5002142EA51
S31500000E300C4200208A6070470123C8B283404AB939
S31500000E401A040B0A5B0103F1804303F5002300201B
S31500000E509A6070479AB2F4E7090A490101F18041A4
S31500000E6001F5002110B40C6802EA030C4CEA040CEC
S31500000E7062EA030202EA0C0200205DF8044B0A60F3
S31500000E80704700BF090A490101F1804101F50021BF
S31500000E904B680020C3F30F4313807047012310B43F
S31500000EA04FEA112C4FEA4C1C0CF1804C0CF5002C2F
S31500000EB0DCF80440C9B203FA01F18BB201EA14412D
S31500000EC0C91AB1FA81F1490900205DF8044B117085
S31500000ED0704700BF090A490123EA020C01F180416B
S31500000EE01A4001F5002142EA0C420020CA60704710
S31500000EF0012A14D04FF480300B0A5B0103F18043C2
S31500000F0003F5002310B4CAB2DC6800FA02F22243E9
S31500000F10120C120400205DF8044BDA6070470B0ACD
S31500000F205B0103F1804303F50023D868C9B28A4008
S31500000F30024392B20020DA60704700BF38B50488D9
S31500000F40002C4CD00021436840F20245043303EBE9
S31500000F50C40040F2034C40F2044E0C460FE06245DA
S31500000F602FD153F8042C02F0B852B2F1807F14BF8F
S31500000F7041F0020144F002040833834210D01A887B
S31500000F80AA42ECD153F8042C083302F0B852B2F15D
S31500000F90807F14BF41F0010144F001048342EED189
S31500000FA0C943CDB2012000F021FE0E4B012093F87B
S31500000FB0BB2414432C4083F8BB44BDE8384000F002
S31500000FC0E5BD7245D8D153F8042C02F0B852B2F1FF
S31500000FD0807F0CBF44F0040441F00401CCE7FF25F8
S31500000FE0E0E700BF00E00140F8B50446FFF7A6FFC2
S31500000FF0EFF31082012383F31088284E33681BB960
S315000010002749CB704023CB7033680133336082F3BA
S31500001010108823887BB3626803F1FF3E1FFA8EFEB9
S3150000102002F108011F4C01EBCE0E08E0D2B21B0103
S3150000103013448E450A4644F823001CD00831106834
S31500001040928810F4803F4FEA1223EFD0130AD2B2EF
S3150000105002EB031C54F82C701B01134420F480355A
S315000010606FF310478E4544F82C700A4644F82C500E
S3150000107044F82300E2D1EFF31082012383F31088B2
S31500001080336813B13368013B336033681BB9802082
S315000010900349CB70C87082F31088F8BDB0010020F8
S315000010A0000D08400008084008B5034B03600846D9
S315000010B0FFF79AFF002008BD54524F5008B5084666
S315000010C0FFF792FF002008BD70B5012684B002AB81
S315000010D068460C4615460193ADF80060ADF80C1055
S315000010E00292FFF72BFFEFF3108286F310881D495B
S315000010F00B681BB940261C48C370C6700B680133C9
S315000011000B6082F31088EA034FEA1423E4B219D481
S315000011101B01164A234442F82350EFF310820123A1
S3150000112083F310880B6813B10B68013B0B600B68E7
S315000011301BB980200C49CB70C87082F31088002040
S3150000114004B070BD094A04EB031052F820601B017D
S315000011506FF3104642F8206025F4803642F820608E
S31500001160D7E700BFB0010020000D08400008084086
S3150000117030B5836B83B004460A466D46A3B193E847
S31500001180030085E80300E16B1A711846626B19606B
S315000011909047A36B1BB195E8030083E80300002387
S315000011A084F82B3003B030BD2B46ECE730B4344B1B
S315000011B082B01B6A026903F00F2301930199019D16
S315000011C0137C90F82C409CB9C1F30321DBB2A1EB50
S315000011D015618B409B0806D10823184602B030BC27
S315000011E07047013BF8D05178C909FAD1B323D371BE
S315000011F0002390F82640016880F8274080F82830C0
S31500001200846980F82B30036280F82D3080F82E3008
S3150000121080F82F3080F830304B6AC46193F800C0F4
S315000012205C78BCF1010F0CBF0523042343EA440399
S31500001230DBB2D370537943F00103537191F90F3048
S31500001240002B08DB012203F01F040E495B09A240B4
S3150000125041F823200269BF23D37190F82C1001F0C6
S31500001260FF0339B10022134680F82C20184602B03D
S3150000127030BC704702211846517002B030BC70472E
S3150000128000E0014000E100E090F808C0C0E9051266
S31500001290BCF1010F80F82A300AD10022436880F899
S315000012A026C05B0043F0010380F8243080F8252037
S315000012B0012380F82930FFF779BF00BF90F808C0F6
S315000012C0C0E90512BCF1010F80F82A3008D10022CE
S315000012D0436880F826C05B0080F8243080F825201B
S315000012E0002380F82930FFF761BF00BF2DE9F04FDA
S315000012F04FF0DF0C4FF01F0A4FF05F094FF0010E61
S315000013000369DFF8A0B183F800A083F8009083F8A2
S3150000131000C0D0F800C00026DCF82490DCF804A059
S3150000132099F804C0B3224CF0E00C83F810C099F889
S3150000133003C0594D4CF0E00C83F811C099F802C077
S315000013404FF09F084FEA0C1C0CF0700C4CF0080C88
S3150000135083F802C099F800C099F80190F4450CBFD3
S315000013604FF0050C4FF0040CDA450CBF4FF0F70AAE
S315000013704FF0770A4CEA490C5FFA8CFC83F803C0FD
S3150000138083F805A09E71DA7191F80DC091F91120CC
S31500001390424F4FEA0C1C424C5FFA8CFC05EB0209EB
S315000013A089F800C34FEA521A47F8220002F1C00931
S315000013B054F829B04FEA8A0A02F01F020AF1604A7D
S315000013C00EFA02F20AF5614A66F3104B44F829B0A8
S315000013D0CAF88021CAF8002091F90F2005EB02090E
S315000013E089F800C34FEA521A47F8220002F1C009F1
S315000013F054F829B04FEA8A0A02F01F020AF1604A3D
S315000014000EFA02F20AF5614A66F3104B44F829B067
S31500001410CAF88021CAF8002091F9102005EB0209CC
S3150000142089F800C34FEA521A47F8220002F1C009B0
S3150000143054F829B04FEA8A0A02F01F020AF1604AFC
S315000014400EFA02F20AF5614A66F3104B44F829B027
S31500001450CAF88021CAF8002091F90E100D4485F8CB
S3150000146000C347F8210001F1C00054F820504A0992
S31500001470920001F01F0102F1604266F3104544F844
S3150000148020500EFA01F102F56142C2F88011116096
S3150000149083F80080BDE8F08F00E100E0B401002091
S315000014A00060004040420F0070B500250A780160D8
S315000014B002F5800202F51F62120202618A68044682
S315000014C042600A7B0272CA6942630A6AC0E90E5226
S315000014D0EFF3108C012282F310880B78C3F1090315
S315000014E09A400D4B5E6826EA02025A605B688CF3EE
S315000014F01088FFF7FBFE094B84F82950284684F82C
S315000015002A50C4E9075584F82B506561A56184F813
S315000015102C50E36070BD00BF00400840434949526B
S3150000152010B483B0EFF30383103B494A5BB2C03378
S3150000153052F823106FF3104142F82310EFF30383A0
S31500001540444A103B5BB252F8233093F82D20BAB9C7
S315000015509A69012A1A6982BF117941F04001117115
S31500001560D969012917D00121D27CD2B28DF8072082
S315000015709DF8072083F82D1003B05DF8044B7047E3
S31500001580DA69002AF8D0032A0ED0022A4ED0012AA0
S3150000159021D019690DE0117941F01001117111790D
S315000015A041F008011171DEE719690A7942F040023B
S315000015B00A71C87C1A6A59698854D3E9072101312E
S315000015C0013AC3E90721002AD6D119690B7962F3DA
S315000015D086130B71D0E793F82A1089B319681E4C4D
S315000015E091F90F10480901F01F0102FA01F12030AC
S315000015F044F82010BFF34F8FBFF36F8F4FF0040CEA
S315000016001969C87940F08000C871087940F0100067
S31500001610087108796FF3C300087181F801C0487931
S315000016206FF30000487183F82C20C2E719690A7924
S3150000163042F010020A710A7942F008020A71B8E70C
S31500001640082019694A7A02F0F7024A724870B0E730
S3150000165000600040B401002000E100E0EFF30383E6
S31500001660103B364A5BB2C03352F823106FF3104179
S3150000167042F82310EFF30383314A103B5BB252F872
S31500001680232092F82730002B37D192F829309BBBC4
S31500001690D36910B4002B42D11069C179C0236FF30E
S315000016A0C711C17101E0013B02D0C179C909FAD164
S315000016B01368224A93F9103003F1C00152F8214011
S315000016C0002B6FF3104442F8214009DB01215A092F
S315000016D01C4C03F01F03603201FA03F344F8223076
S315000016E0C3795DF8044B43F04003C3717047022988
S315000016F009D192F8300030B9704792F826100329C4
S3150000170092F82810F3D092F824C010690131013BF9
S3150000171080F812C082F8281082F827307047116AC4
S31500001720D2E90404645C013B01318474C2E90731E7
S31500001730002BB2D05DF8044B704700BF006000403C
S31500001740B401002000E100E010B4EFF303832C4A5B
S31500001750103B5BB252F8233093F829201AB193F864
S315000017602720012A47D0DA69D2B11969CA79C0237C
S315000017706FF38612CA7101E0013B02D0CA795206A4
S31500001780FAD4EFF30383103B1E4A5BB2C03352F820
S3150000179023106FF3104142F823105DF8044B704795
S315000017A093F82A10F9B14FF0010C1968164C91F90B
S315000017B00F10480901F01F0120300CFA01F144F81E
S315000017C02010BFF34F8FBFF36F8F1969C87940F0B0
S315000017D08000C87104204870487962F3000048719F
S315000017E083F82CC0C2E7082219694B7A03F0F70385
S315000017F04B724A70BAE793F83020002AB3D1B4E7A7
S31500001800B40100200060004000E100E038B5EFF3CD
S315000018100383E0214C4A103B5BB252F82340236914
S315000018205A7A5972D5065FFA82FC02F003001FD578
S315000018305A7851064AD40121E26984F82B10002A0D
S3150000184060D0002521682046DD71FFF74FFD94F832
S315000018502610A2692369E56184F82810226284F8BB
S315000018602C50B32201212046DA71FFF781FC13E0E8
S315000018700028E0D11CF0080F1BD094F82B20002A7A
S3150000188049D194F82910B322002914BF022103215B
S31500001890DA712046FFF76CFCEFF30383103B2B4A0B
S315000018A05BB2C03352F823106FF3104142F8231095
S315000018B038BD94F82C20002AEED01CF0040FEBD093
S315000018C094F82B200121002AE3D1DAE70028B2D1CF
S315000018D05A78C2F380115206CCD5082084F82B1012
S315000018E05A7A216802F0F702496A5A7258700A78E1
S315000018F0012A0CBF03220222DA705A7942F0010251
S315000019005A71C9E794F82C20002A9AD194F82B2012
S31500001910002AA6D095E7E2696AB10022A16994F887
S315000019202600C4E9072184F8280084F82C20B32275
S315000019300121DA71ADE794F82C20002AEDD194F854
S315000019402B20002AF3D0E8E7B40100200060004015
S31500001950064B074993F826001A6A51F82030C2F35D
S3150000196002620449D3400B60704700BF00E00140AB
S3150000197070000020400300204AF20350012327494B
S31500001980274A70B4A1F8FE03A2F80431B2F8043174
S315000019909BB2002BFAD101214FF400452148224C7D
S315000019A0C0E903338560A2F80011204AA1602160D6
S315000019B002601F4C194A92F826504460146A82F855
S315000019C0801482F836301B4B436192F83C30D907BD
S315000019D0FBD542F2117400231049148582F82A308F
S315000019E091F83C309B06FBD505224FF0030C4FF4D3
S315000019F025440B4E104B86F81CC181F826200B623D
S31500001A0091F826300A6A50F823300C4DC2F3026270
S31500001A10D3402B60A1F8FE4370BC704700E0014044
S31500001A2000C001407000002000700040002D310110
S31500001A3000127A0000C2EB0B2112022040030020A4
S31500001A40A0F101000028FBD1704700BF10B54FF48C
S31500001A507A72164C164B24684FF0000EB3FBF4FC5A
S31500001A604FF0FF3300FB01F1A1FB020483427EEB42
S31500001A70040407D3B0FBFCF0800880B1BDE8104039
S31500001A80FFF7DEBF4FEA8C0CB1FBFCF1A1FB0212A3
S31500001A908B427EEB020203D308460028EED110BD2E
S31500001AA01846BDE81040FFF7CBBF00BF400300203B
S31500001AB000CA9A3B70B500240A4B0B4EB3F840514E
S31500001AC0ADB225FA04F3DB07E0B203D556F82430AD
S31500001AD003B198470134102CF3D1024BA3F83051CF
S31500001AE070BD00BF006000407001002030B56FF08F
S31500001AF0FF0585B0032000F079F84FF0FF311F4C49
S31500001B001F482246856400230125CDE90111039172
S31500001B1004F1C00E32F8020F590960B104A800EBB7
S31500001B20810151F80C0C03F01F0C05FA0CFC20EA9D
S31500001B300C0041F80C0C724503F10103EAD101993E
S31500001B40104B0F4A03201167C3F8801202995167A0
S31500001B50C3F8841203999167C3F8881200F016F847
S31500001B600023094803F1C00234F8021F0133602B39
S31500001B7040F82210F6D105B030BD00BF3634000063
S31500001B800080004000E100E000600040EFF31081BB
S31500001B90012383F31088124B33F8102092B22AB136
S31500001BA033F81020013A92B223F8102033F810309F
S31500001BB09BB293B90B4A10B4B2F8FE330A4C9BB2EF
S31500001BC034F8100043F4254323EA0003A2F8FE3359
S31500001BD081F310885DF8044B704781F310887047D5
S31500001BE03403002000E001402C35000030B4EFF350
S31500001BF01081012383F310880E4A32F810309BB20D
S31500001C006BB90D4C0D4DB4F8FE3335F810C09BB2D0
S31500001C1043EA0C0343F425439BB2A4F8FE3332F89F
S31500001C20103001339BB222F8103081F3108830BC9B
S31500001C30704700BF3403002000E001402C3500004F
S31500001C400D4908B50A6803464AB103330B4823F029
S31500001C5003031344834206D810460B6008BD0848A8
S31500001C6002460860F1E700F077F80C234FF0FF32E8
S31500001C700360104608BD00BF3C030020F813002097
S31500001C80F803002000BE704708B500F003F8FEF721
S31500001C9005FCFEE74FF47001234B244A70B5002083
S31500001CA0C3F888109A60FEF763FBFFF765FE012014
S31500001CB0FEF75EFB1E4B83F30A881E481E4A002170
S31500001CC0121A00F05CF81D481D4A1E49121A00F04F
S31500001CD049F81D4D1D4B5B1B002B07DD00249E1094
S31500001CE055F8043B01349847A642F9DCFFF730FE6D
S31500001CF00320FFF77BFF00234FF6FF70144903F123
S31500001D0008020133092B21F81200F8D10320FFF74E
S31500001D103DFF0220FEF72CFBFFF7E8FEBDE8704012
S31500001D20002000F017B800BF00ED00E00000000042
S31500001D30F813002090000020F4030020000000208B
S31500001D4070000020D0350000680000206C000020E4
S31500001D50000D0840704700BF014B1868704700BF70
S31500001D60040000200A44431E914200D1704710B57A
S31500001D7011F8014B914203F8014FF9D110BD02440D
S31500001D800346934200D1704703F8011BF9E7FFFFB2
S31500001D900FB40A4B13B51C6824B1A36913B92046C6
S31500001DA000F086F805AB049AA1682046019300F07E
S31500001DB039FB02B0BDE8104004B0704704000020B3
S31500001DC00EB400B59CB06FF000411DAB02900690BA
S31500001DD0079104910848094953F8042B059102A973
S31500001DE00068019300F0F4F9029B00221A701CB0FF
S31500001DF05DF804EB03B07047040000200802FFFF03
S31500001E00002310B504468360818119464366C2816A
S31500001E1008228361C0E90033C0E904335C30FFF770
S31500001E20AEFF054B24626362044BA362044BE3627C
S31500001E30044B236310BD00BFD1290000F329000025
S31500001E402B2A00004F2A0000014900F0AFB800BF5E
S31500001E50252D000070B568224D1E0E46554305F12E
S31500001E60740100F0E5F8044640B1002105F168026E
S31500001E70C0E900160C30A060FFF781FF204670BD58
S31500001E80014800F0B3B800BF45030020014800F048
S31500001E90AEB800BF45030020014800F0A7B800BF58
S31500001EA046030020014800F0A2B800BF4603002008
S31500001EB010B50446FFF7F0FFA3691BB1BDE810405B
S31500001EC0FFF7F0BFC4E9123323652046124B134ACD
S31500001ED01B68A262A34204BF0123A36100F020F89D
S31500001EE06060204600F01CF8A060204600F018F85C
S31500001EF000220421E0606068FFF782FF01220921C9
S31500001F00A068FFF77DFF02221221E068FFF778FF45
S31500001F100123A361D2E700BF34350000491E00004B
S31500001F20F8B50746FFF7ACFF1E4B1E68B36913B939
S31500001F303046FFF7BDFF4836D6E90134013B03D5ED
S31500001F4033680BB33668F7E7B4F90C50D5B9164BBE
S31500001F5004F158006566E36000F047F8FFF796FF66
S31500001F600822294604F15C002560A561C4E90155F3
S31500001F70C4E90455FFF703FFC4E90D55C4E912553A
S31500001F802046F8BD6834D9E704213846FFF762FFDA
S31500001F90044630600028D5D1FFF778FF0C233B605C
S31500001FA0EEE700BF343500000100FFFF2DE9F843DE
S31500001FB00646884600F148040027D4E90195B9F1A0
S31500001FC0010905D52468002CF7D13846BDE8F88309
S31500001FD0AB89012B07D9B5F90E30013303D0294659
S31500001FE03046C04707436835E9E770477047704792
S31500001FF070B50E4E0C460546316811B900F0D8FC96
S3150000200030602146284600F0D3FC431C0AD0C41C8D
S3150000201024F00304A04207D0211A284600F0C8FC89
S31500002020013001D14FF0FF34204670BD4C03002033
S315000020302DE9F041CD1C074625F0030508350C2D8A
S3150000204038BF0C25002D01DBA94205D90C2300263B
S315000020503B603046BDE8F0812E4E00F03FFF33680E
S315000020601C4634BB29463846FFF7C2FF431C0446CC
S315000020704DD134682646002E40D123683146384675
S3150000208004EB030800F094FC80453AD1216803353F
S3150000209038466D1A25F0030508350C2D38BF0C257A
S315000020A02946FFF7A5FF01302BD023682B44236078
S315000020B00EE02268521B1ED40B2A16D96119A342C0
S315000020C0256018BF5960636808BF316062514B6074
S315000020D004F10B06384600F007FF231D26F007061D
S315000020E0F21AB6D09B1BA350B3E76268A3420CBF9B
S315000020F032605A60ECE723466468B2E73446766895
S31500002100B9E70C2338463B6000F0EEFEA1E72560F8
S31500002110DEE700BF480300202DE9F0478E688246BF
S315000021200C4690469E421F4638D88A8912F4906F14
S3150000213032D0256801330969A5EB0109656905EB0C
S3150000214045054B4405EBD5756D109D4238BF1D46C0
S31500002150530531D52946FFF76BFF064650B90C23C8
S315000021604FF0FF30CAF80030A38943F04003A38143
S31500002170BDE8F0874A462169FFF7F4FDA38923F4F9
S31500002180906343F08003A38126614E446561A5EB0D
S31500002190090526603E46A560BE4200D93E46324647
S315000021A04146206800F080FEA36800209B1BA360C8
S315000021B0236833442360DBE72A4600F0E7FE064641
S315000021C00028E1D12169504600F094FEC7E7FFFFE1
S315000021D02DE9F04F98468B899DB007461B060D46A4
S315000021E014460ED50B6963B94021FFF721FF28601D
S315000021F0286120B90C233B604FF0FF30D1E040232B
S315000022006B610023CDF80C804FF00109DFF8AC813B
S31500002210099320238DF8293030238DF82A30234660
S315000022209A4613F8012B0AB1252AF9D1BAEB040B09
S315000022300BD05B46224629463846FFF76DFF013034
S3150000224000F0AA80099A5A4409929AF80030002BA5
S3150000225000F0A28000234FF0FF320AF1010A049336
S3150000226007938DF853301A93CDE90523544605227A
S31500002270524814F8011B00F009FE049AD8B9D0069A
S3150000228044BF20238DF85330110744BF2B238DF80C
S3150000229053309AF800302A2B15D0079A544600205E
S315000022A04FF00A0C214611F8013B303B092B4ED961
S315000022B0B0B1079214E0A0EB0803A24609FA03F3B3
S315000022C013430493D2E7039B191D1B68002B03914C
S315000022D0BBBF5B4242F0020207930793B8BF04926A
S315000022E023782E2B0CD163782A2B35D1039B02340D
S315000022F01A1D1B68002B0392B8BF4FF0FF330593DE
S31500002300DFF8C8A003222178504600F0BFFD40B197
S315000023104023A0EB0A00013403FA00F0049B0343B8
S31500002320049314F8011B062225488DF8281000F0A6
S31500002330ADFD002838D0234B1BBB039B073323F08E
S31500002340070308330393099B3344099367E70CFBA0
S3150000235002320C460120A5E7002301344FF00A0C97
S3150000236019460593204610F8012B303A092A03D95D
S31500002370002BC5D00591C3E70CFB012104460123C0
S31500002380F0E703AB2A4604A9384600930E4B00E05B
S3150000239000BF421C0646D6D1AB895B063FF52CAF83
S315000023A009981DB0BDE8F08F03AB2A4604A938464C
S315000023B00093054B00F0D6F9EBE700BF9835000017
S315000023C0A235000000000000192100009E35000023
S315000023D09368013B002B936010B408DA9469A3421A
S315000023E001DB0A2903D15DF8044B00F035BB136805
S315000023F0581C1060084619705DF8044B7047F8B514
S3150000240006460F461446D518AC4201D1002007E017
S315000024103A4614F8011B3046FFF7DAFF431CF3D1A6
S31500002420F8BDFFFF2DE9F04F0D469DB014469846C6
S31500002430064618B183690BB9FFF73AFD894B9D42F1
S315000024401BD175686B6ED90705D4AB899A0502D482
S31500002450A86DFFF7CBFDAB891B0701D52B69EBB93F
S315000024602946304600F05CFBC0B16B6EDC070ED52A
S315000024704FF0FF301DB0BDE8F08F7B4B9D4201D180
S31500002480B568DFE7794B9D4208BFF568DAE7AB89A7
S315000024909805EDD4A86DFFF7AAFDE9E70023CDF86E
S315000024A00C804FF00109DFF8C881099320238DF8CD
S315000024B0293030238DF82A3023469A4613F8012B0B
S315000024C00AB1252AF9D1BAEB040B0BD05B4622469A
S315000024D029463046FFF793FF013000F0AA80099A9B
S315000024E05A4409929AF80030002B00F0A28000238B
S315000024F04FF0FF320AF1010A049307938DF8533027
S315000025001A93CDE9052354460522594814F8011BB0
S3150000251000F0BCFC049AD8B9D10644BF20238DF83C
S315000025205330130744BF2B238DF853309AF80030ED
S315000025302A2B15D0079A544600204FF00A0C214644
S3150000254011F8013B303B092B4ED9B0B1079214E08C
S31500002550A0EB0803A24609FA03F313430493D2E758
S31500002560039B191D1B68002B0391BBBF5B4242F006
S31500002570020207930793B8BF049223782E2B0CD13F
S3150000258063782A2B35D1039B02341A1D1B68002B56
S315000025900392B8BF4FF0FF330593DFF8E4A00322A0
S315000025A02178504600F072FC40B14023A0EB0A00AF
S315000025B0013403FA00F0049B0343049314F8011B4F
S315000025C006222C488DF8281000F060FC00283FD029
S315000025D0294B1BBB039B073323F0070308330393E5
S315000025E0099B3B44099367E70CFB02320C4601202A
S315000025F0A5E7002301344FF00A0C1946059320463F
S3150000260010F8012B303A092A03D9002BC5D00591C1
S31500002610C3E70CFB012104460123F0E703AB2A467E
S3150000262004A930460093154B00E000BF0746781C0E
S31500002630D6D16B6ED90705D4AB899A0502D4A86D9D
S31500002640FFF7D5FCAB895B063FF512AF099811E79A
S3150000265003AB2A4604A930460093084B00F082F8E3
S31500002660E4E700BF58350000783500003835000033
S3150000267098350000A235000000000000FF2300008E
S315000026809E3500002DE9F047164699468A680746AA
S315000026900B690C46DDF820809342B8BF13463360C1
S315000026A091F843200AB1013333602368990642BF8B
S315000026B0336802333360256815F0060506D104F148
S315000026C0190AE36832689B1AAB4229DC94F8432066
S315000026D0131E226818BF012392062ED404F143026A
S315000026E049463846C047013021D023681A3454F889
S315000026F00E5C03F0060332680026042B54F8123CE5
S3150000270008BFAD1A54F80A2C14BF002525EAE57552
S315000027109342C4BF9B1AED18B5421AD1002008E0B7
S315000027200123524649463846C047013003D14FF08F
S31500002730FF30BDE8F0870135C3E7E1185A1C3020A9
S315000027400233224481F8430094F8451082F843107E
S31500002750C4E70123224649463846C0470130E6D041
S315000027600136D9E72DE9FF470F7E914680460C4694
S31500002770782F9A460C9D01F1430207D8622F0AD89A
S31500002780002F00F0D880582F00F0A38004F14205F6
S3150000279084F842703AE0A7F16303152BF6D801A13D
S315000027A051F823F0FD270000112800008D270000B6
S315000027B08D2700008D2700008D27000011280000BE
S315000027C08D2700008D2700008D2700008D27000033
S315000027D01D29000041280000FF2800008D27000069
S315000027E08D2700003F2900008D27000041280000AA
S315000027F08D2700008D270000072900002B681A1D71
S315000028001B682A6004F1420584F842300123A3E0E4
S3150000281020682968060601F104030AD50E682B60B4
S31500002820002E03DA2D23764284F843305E480A23CD
S3150000283019E00E6810F0400F2B6018BF36B2EFE7B4
S315000028402B682068191D2960010601D51E6802E063
S315000028504606FBD51E886F2F53480CBF08230A2354
S31500002860002184F843106568002DA560A2BF216889
S3150000287021F0040121600EB9002D4DD01546B6FB9E
S31500002880F3F103FB1167C75D05F8017D37460E4678
S31500002890BB42F4D9082B0BD12368DE0708D5236980
S315000028A061689942DEBF302305F8013C05F1FF352A
S315000028B0521B22614B4603AA21464046CDF800A092
S315000028C0FFF7E0FE01304CD14FF0FF3004B0BDE819
S315000028D0F087354881F845702968236851F8046BFC
S315000028E029601D0614D5DF0744BF43F0200323608B
S315000028F01EB9236823F0200323601023B0E7236862
S3150000290043F0200323607823284884F84530E3E722
S31500002910590648BFB6B2E6E71546BBE72B682668F8
S31500002920181D6169286035061B6801D5196002E02B
S315000029307006FBD51980002315462361BAE72B687C
S3150000294000211A1D2A601D686268284600F09EFA5A
S3150000295008B1401B606063682361002384F843303C
S31500002960A8E723692A4649464046D0470130ABD0FE
S3150000297023689B0713D4E068039B9842B8BF1846A8
S31500002980A4E70123324649464046D04701309BD052
S315000029900135E36803995B1AAB42F2DCEBE70025ED
S315000029A004F11906F5E700BFA9350000BA350000A5
S315000029B038B50023054D044608462B60FFF740F95D
S315000029C0431C02D12B6803B1236038BD500300209D
S315000029D010B50C46B1F90E1000F008FB0028ABBF8D
S315000029E0636DA3891B1823F48053ACBF6365A38171
S315000029F010BD2DE9F0411F468B8905460C46DB05C7
S31500002A00164605D502230022B1F90E1000F0C6F9CC
S31500002A10A3893246B4F90E10284623F48053A381C5
S31500002A203B46BDE8F04100F069B810B50C46B1F977
S31500002A300E1000F0B3F9431CA38915BF606523F49B
S31500002A40805343F48053A38118BFA38110BDB1F90D
S31500002A500E1000F0D3B8FFFFF8B50E461446054633
S31500002A6018B183690BB9FFF723FA214B9C422BD18E
S31500002A706C68A369A360A3891A072FD523696BB372
S31500002A802369F6B220683746C01A6369834204DCBC
S31500002A902146284600F046F930BBA3680130013BC9
S31500002AA0A36023685A1C22601E706369834204D0A7
S31500002AB0A389DB0706D50A2E04D12146284600F055
S31500002AC031F988B93846F8BD0A4B9C4201D1AC6849
S31500002AD0CFE7094B9C4208BFEC68CAE72146284667
S31500002AE000F01EF80028CBD04FF0FF37EAE700BF12
S31500002AF058350000783500003835000038B50446F2
S31500002B00064D0846114600222A601A46FDF7A0FC2B
S31500002B10431C02D12B6803B1236038BD500300204B
S31500002B20324B70B51D6806460C4625B1AB6913B924
S31500002B302846FFF7BDF92E4B9C420FD16C68A3893E
S31500002B40B4F90C2019072CD4DD0611D409233360FF
S31500002B5042F040034FF0FF30A3813EE0254B9C42FC
S31500002B6001D1AC68EBE7244B9C4208BFEC68E6E772
S31500002B70580712D5616B41B104F14403994202D062
S31500002B80304600F0B7F900236363A38923F02403DA
S31500002B90A3810023636023692360A38943F00803AC
S31500002BA0A38123694BB9A38903F42073B3F5007F8E
S31500002BB003D02146304600F029F9A089B4F90C204B
S31500002BC010F001030AD00023A36063695B42A3618E
S31500002BD0236943B910F08000BAD170BD810758BF90
S31500002BE06369A360F4E70020F7E700BF0400002054
S31500002BF058350000783500003835000038B5002318
S31500002C00054D044608462B6000F0A4FA431C02D189
S31500002C102B6803B1236038BD500300208A892DE953
S31500002C20F041054610070C4658D44B68002B05DCCE
S31500002C300B6C002B02DC0020BDE8F081E66A002E5A
S31500002C40F9D0002312F480522F682B6032D0606DC9
S31500002C50A3895A0705D56368C01A636B0BB1236C49
S31500002C60C01A00230246E66A2846216AB047431C7A
S31500002C70A38906D129681D292CD8294ACA40D60716
S31500002C8028D50022D90462602269226004D5421C3C
S31500002C9001D12B6803B96065616B2F600029CAD02A
S31500002CA004F14403994202D0284600F023F900209B
S31500002CB06063C1E7216A01232846B047411CC7D19A
S31500002CC02B68002BC4D01D2B01D0162B01D12F60F1
S31500002CD0B1E7A38943F04003A381ADE70F69002F55
S31500002CE0A9D093070E680F600CBF4B690023A6EBB3
S31500002CF007088B60B8F1000F9DDD43463A46216A0E
S31500002D002846A66AB047002806DCA3894FF0FF30A4
S31500002D1043F04003A3818FE70744A8EB0008E9E7E7
S31500002D200100402038B50B6905460C4613B900254D
S31500002D30284638BD18B183690BB9FFF7B9F8144BAB
S31500002D409C421BD16C68B4F90C30002BEFD0626E3C
S31500002D50D00704D4990502D4A06DFFF747F9284699
S31500002D602146FFF75BFF636E0546DA07E0D4A389C9
S31500002D709B05DDD4A06DFFF73AF9D9E7054B9C42D8
S31500002D8001D1AC68DFE7044B9C4208BFEC68DAE788
S31500002D9058350000783500003835000038B504464F
S31500002DA0064D0846114600222A601A4600F0C3F96D
S31500002DB0431C02D12B6803B1236038BD50030020A9
S31500002DC070B50E46B1F90E1096B0144600291D4690
S31500002DD008DAB6F90C3000222A601A0610D44FF42D
S31500002DE080630EE06A4600F013F90028F1DB019AD1
S31500002DF002F47042A2F500535A425A412A60EEE7A5
S31500002E0040230020236016B070BDFFFF8B8973B589
S31500002E109D0706460C4607D504F147032360236148
S31500002E200123636102B070BD01AB6A46FFF7C8FFBC
S31500002E30009905463046FFF7FBF848B9B4F90C305F
S31500002E409A05EFD423F0030343F00203A381E3E7DB
S31500002E500D4BB362A389206043F080032061A381F8
S31500002E60009B6361019B5BB1B4F90E10304600F024
S31500002E70E1F828B1A38923F0030343F00103A381FA
S31500002E80A0890543A581CDE7491E0000C9B20244C9
S31500002E9010B59042034601D1002303E01C780130AF
S31500002EA08C42F6D1184610BD884210B501EB0204DB
S31500002EB002D98442234607D8431EA14208D011F8FE
S31500002EC0012B03F8012FF8E7024401468A4200D19C
S31500002ED010BD13F8014D02F8014DF7E70148FFF761
S31500002EE085B800BF440300200148FFF780B800BF43
S31500002EF04403002037B5002943D051F8043C0C1F89
S31500002F000190002BB8BFE418FFF7E8FF1E4A0198AE
S31500002F10136833B96360146003B0BDE83040FFF74F
S31500002F20E3BFA34208D9256861198B4201BF19681E
S31500002F305B6849192160EDE71A465B680BB1A3424D
S31500002F40FAD911685518A5420BD1246821445418A2
S31500002F501160A342E0D11C685B6821445360116094
S31500002F60DAE702D90C230360D6E7256861198B429C
S31500002F7002BF19685B684919636008BF2160546025
S31500002F80CAE703B030BD00BF480300202DE9F04179
S31500002F90804614460E4621B91146BDE8F041FFF7BA
S31500002FA047B82AB92546FFF7A5FF2846BDE8F081B0
S31500002FB000F050F88442074602D8B4EB500F12D8FE
S31500002FC021464046FFF734F805460028EDD0BC42BE
S31500002FD02246314628BF3A46FEF7C4FE31464046F1
S31500002FE0FFF788FFE1E73546DFE7FFFF38B5044620
S31500002FF0064D0846114600222A601A46FDF7F2F9E8
S31500003000431C02D12B6803B1236038BD5003002056
S3150000301038B50023064D0446084611462B6000F0DD
S31500003020E0F8431C02D12B6803B1236038BD00BF12
S315000030305003002038B50023054D044608462B6092
S3150000304000F0DDF8431C02D12B6803B1236038BDC4
S315000030505003002051F8043C181F002BBCBF0B582E
S31500003060C01870470A4B10B50446186818B1836932
S315000030700BB9FEF71DFF132C07D8064850F834206D
S31500003080013202D000EBC40010BD0020FCE700BFF7
S315000030900400002054030020F8B504461326FEF76A
S315000030A05BFE0027054630463946ABBE064620463F
S315000030B02E60F8BD431C01D1FFF7EEBF7047F7B590
S315000030C00C461646FFF7CEFF054640B9FEF744FE0E
S315000030D0092303604FF0FF34204603B0F0BD022EF3
S315000030E003D9FEF739FE1623F3E7012E12D1436802
S315000030F0E418F6D42B680A266F46CDE9003430462C
S315000031003946ABBE06463046FFF7D4FF0028E1DB62
S315000031106C60E1E7022EEDD103680C266F46009342
S3150000312030463946ABBE06463046FFF7C3FF431C62
S31500003130D0D00444DEE7FFF7C2BF37B5022401ADA5
S31500003140019020462946ABBE04462046FFF7B2FF53
S3150000315003B030BD38B50546FFF784FF044630B9E5
S31500003160FEF7FAFD092303604FF0FF3038BD013D3D
S31500003170012D09D8094B9A681B699A4204D14FF070
S31500003180FF3303600020F1E72068FFF7D6FF002831
S31500003190ECD14FF0FF332360E8E700BF5403002073
S315000031A070B50C46FFF75EFF054630B9FEF7D4FD55
S315000031B0092303604FF0FF3070BD63680C2643F4AB
S315000031C0005363604FF48063A36430462946ABBE68
S315000031D005462846FFF76EFF431C1CBF20610020F2
S315000031E0EAE70B465822002110B504461846FEF7BA
S315000031F0C6FD01462046BDE81040FFF7D1BF70B5B9
S31500003200FFF730FF0925044620B9FEF7A5FD056046
S31500003210204670BD28462146ABBE0446012CF7D099
S31500003220FEF79AFD00240546132630462146ABBE1E
S3150000323006462E60ECE7FFFF4275696C74207769DD
S3150000324074682052656E6573617320416476616EA1
S3150000325063656420466C657869626C6520536F66A9
S315000032607477617265205061636B6167652076656E
S315000032707273696F6E20342E302E3000342E302E4D
S315000032803000000000000004F8B500BFF8BC08BC20
S315000032909E467047F8B500BFF8BC08BC9E4670470E
S315000032A025642C25642C25640D0A0000257300FF77
S315000032B0B800002050330000F83400000900000078
S315000032C0A086010068000000010CDF040500000074
S315000032D00000000000000000CD0200000000000019
S315000032E0E4320000011400AC1E01FFFF00000000E4
S315000032F0A086010068000000010C0607080900000E
S315000033000000000000000000410200000000000074
S31500003310143300000101031C1CFFFFFF0002000024
S315000033200C000C010C020C03000000000000000061
S31500003330C1030000000000003C3300000001000053
S31500003340000000200F00FFFF00000000FFFF00004C
S315000033501C00000058330000008000000000000040
S315000033600080000001000000008000000200000054
S315000033700080000003000000008000000400000040
S315000033800080000008000000400001040001000069
S315000033900000010401010000040C0000040100000B
S315000033A0040C000005010000040C000006010000EA
S315000033B0050C000007010000000C010008010000D8
S315000033C0400C010509010000400C01050A0100003E
S315000033D0000000000C010000040C00000D010000BC
S315000033E0000C010000030000040C000002030000B2
S315000033F0040C000003030000400C01070004000059
S31500003400400C010701040000040C00000204000047
S31500003410040C000007040000040C0000080400006F
S31500003420040C000009040000040C00000A0400005B
S31500003430040C000000050000800181018201830167
S31500003440B701B80173007400750076000000000033
S315000034500000000000000000000000000000000066
S315000034600000000000000000000000000000000056
S315000034700000000000000000000000000000000046
S315000034800000000000000000000000000000000036
S315000034900000000000000000000000000000000026
S315000034A00000000000000000000000000000000016
S315000034B00000000000000000000000000000000006
S315000034C000000000000000000000000000000000F6
S315000034D000000000000000000000000000000000E6
S315000034E000000000000000000000000000000000D6
S315000034F00000000000000000A9100000D90D000027
S31500003500BD100000C91000009D0E0000F10E000065
S31500003510E50D0000390E0000590E0000850E000072
S31500003520D50E0000090E00001D0E0000010002006D
S315000035300800100008000020000000000000000045
S315000035400000000000000000000000000000000075
S315000035500000000000000000000000000000000065
S315000035600000000000000000000000000000000055
S315000035700000000000000000000000000000000045
S315000035800000000000000000000000000000000035
S315000035900000000000000000232D302B2000686C86
S315000035A04C00656667454647003031323334353660
S315000035B03738394142434445460030313233343599
S315000035C03637383961626364656600FF00000000C3
S315000035D040003500080000200000000058350000BB
S315000035E078350000383500000000000000000000BB
S315000035F000000000000000000000000000000000C5
S3150000360000000000000000000000000000000000B4
S3150000361000000000000000000000000000000000A4
S315000036200000000000000000000000000000000094
S31500003630000000000000000025020000010200005A
S3150100A100FFFFFFFFFFFFFFFFFFFFFFFFFFFFFFFF58
S3150100A110FFFFFFFFFFFFFFFFFFFFFFFFFFFFFFFF48
S3150100A120FFFFFFFFFFFFFFFFFFFFFFFFFFFFFFFF38
S30D0100A130FFFFFFFFFFFFFFFF28
S3150100A200FFFCFFFFFFFFFFFFFFFFFFFFFFFFFFFF5A
S3150100A210FFFFFFFFFFFFFFFFFFFFFFFFFFFFFFFF47
S3150100A220FFFFFFFFFFFFFFFFFFFFFFFFFFFFFFFF37
S3150100A230FFFFFFFFFFFFFFFFFFFFFFFFFFFFFFFF27
S3150100A240FFFFFFFFFFFFFFFFFFFFFFFFFFFFFFFF17
S3150100A250FFFFFFFFFFFFFFFFFFFFFFFFFFFFFFFF07
S3150100A260FFFFFFFFFFFFFFFFFFFFFFFFFFFFFFFFF7
S3150100A270FFFFFFFFFFFFFFFFFFFFFFFFFFFFFFFFE7
S3150100A280F8F8FFFFFFFFFFFFFFFFFFFFFFFFFFFFE5
S3150100A290FFFFFFFFFFFFFFFFFFFFFFFFFFFFFFFFC7
S3150100A2A0FFFFFFFFFFFFFFFFFFFFFFFFFFFFFFFFB7
S3150100A2B0FFFFFFFFFFFFFFFFFFFFFFFFFFFFFFFFA7
S3110100A2C0FFFFFFFFFFFFFFFFFFFFFFFF97
S70500001C8955
